:1000000075C30000A4C30000A2C30000A0C3000089
:100010009EC300009CC300009AC3000098C3000068
:1000200096C3000094C3000092C3000090C3000078
:100030008EC300008CC300008AC3000088C3000088
:1000400086C3000084C3000082C3000080C3000098
:100050000C9428107CC300007AC300000C94BF0EDF
:1000600076C300000C94890E0C945F0E70C30000E0
:100070006EC300006CC300006AC3000068C30000C8
:1000800066C3000064C3000062C3000060C30000D8
:100090005EC300005CC300005AC300000C94090F4B
:1000A00056C3000054C3000052C3000050C30000F8
:1000B0004EC300004CC300004AC3000048C3000008
:1000C00046C3000044C3000042C3000040C3000018
:1000D0003EC300003CC300003AC3000038C3000028
:1000E00036C3000000000000003E5B4F5B3E3E6BED
:1000F0004F6B3E1C3E7C3E1C183C7E3C181C577DC2
:10010000571C1C5E7F5E1C00183C1800FFE7C3E70D
:10011000FF0018241800FFE7DBE7FF30483A060E1F
:100120002629792926407F050507407F05253F5A66
:100130003CE73C5A7F3E1C1C08081C1C3E7F1422D6
:100140007F22145F5F005F5F06097F017F00668981
:10015000956A606060606094A2FFA29408047E04C7
:100160000810207E201008082A1C08081C2A0808ED
:100170001E101010100C1E0C1E0C30383E383006AD
:100180000E3E0E06000000000000005F00000007A9
:10019000000700147F147F14242A7F2A12231308D7
:1001A000646236495620500008070300001C2241B3
:1001B000000041221C002A1C7F1C2A08083E080857
:1001C0000080703000080808080800006060002007
:1001D000100804023E5149453E00427F40007249EA
:1001E0004949462141494D331814127F102745458E
:1001F00045393C4A494931412111090736494949A4
:1002000036464949291E0000140000004034000011
:10021000000814224114141414140041221408027A
:10022000015909063E415D594E7C1211127C7F49ED
:100230004949363E414141227F4141413E7F494942
:1002400049417F090909013E414151737F0808086E
:100250007F00417F41002040413F017F081422413F
:100260007F404040407F021C027F7F0408107F3E99
:100270004141413E7F090909063E4151215E7F0906
:10028000192946264949493203017F01033F40406D
:10029000403F1F2040201F3F4038403F6314081458
:1002A0006303047804036159494D43007F41414190
:1002B0000204081020004141417F04020102044071
:1002C00040404040000307080020545478407F28F5
:1002D0004444383844444428384444287F385454EB
:1002E000541800087E090218A4A49C787F0804040E
:1002F0007800447D40002040403D007F10284400AD
:1003000000417F40007C047804787C08040478383D
:1003100044444438FC1824241818242418FC7C086D
:10032000040408485454542404043F44243C4040EA
:10033000207C1C2040201C3C4030403C442810289D
:10034000444C9090907C4464544C440008364100E6
:100350000000770000004136080002010204023C60
:100360002623263C1EA1A161123A4040207A38542F
:1003700054555921555579412254547842215554A8
:10038000784020545579400C1E52721239555555FB
:1003900059395454545939555454580000457C41E6
:1003A0000002457D420001457C407D1211127DF026
:1003B000282528F07C545545002054547C547C0A50
:1003C000097F4932494949323A4444443A324A4819
:1003D00048303A4141217A3A42402078009DA0A01D
:1003E0007D3D4242423D3D4040403D3C24FF24246F
:1003F000487E4943662B2FFC2F2BFF0929F620C08E
:10040000887E090320545479410000447D413048DE
:10041000484A32384040227A007A0A0A727D0D1921
:10042000317D2629292F28262929292630484D4083
:1004300020380808080808080808382F10C8ACBA7F
:100440002F102834FA00007B000008142A142222FE
:10045000142A14085500550055AA55AA55AAFF5547
:10046000FF55FF000000FF00101010FF00141414CF
:10047000FF001010FF00FF1010F010F0141414FC17
:10048000001414F700FF0000FF00FF1414F404FC34
:10049000141417101F10101F101F1414141F001015
:1004A0001010F0000000001F101010101F1010108E
:1004B00010F010000000FF1010101010101010109D
:1004C000FF10000000FF140000FF00FF00001F10DD
:1004D000170000FC04F414141710171414F404F497
:1004E0000000FF00F714141414141414F700F71488
:1004F0001414171410101F101F141414F4141010D7
:10050000F010F000001F101F0000001F140000007A
:10051000FC140000F010F01010FF10FF141414FF72
:10052000141010101F00000000F010FFFFFFFFFF6D
:10053000F0F0F0F0F0FFFFFF0000000000FFFF0F01
:100540000F0F0F0F3844443844FC4A4A4A347E02A5
:10055000020606027E027E02635549416338444426
:100560003C04407E201E2006027E020299A5E7A5DB
:10057000991C2A492A1C4C7201724C304A4D4D304C
:100580003048784830BC625A463D3E494949007E71
:100590000101017E2A2A2A2A2A44445F4444405108
:1005A0004A444040444A51400000FF0103E080FFBC
:1005B000000008086B6B083612362436060F090F48
:1005C00006000018180000001010003040FF010164
:1005D000001F01011E00191D1712003C3C3C3C008D
:1005E0000000000000000A0B02090C0D0E080703B2
:1005F00004010000000000000000000000000000F6
:1006000000000000000000000000000000000000EA
:1006100012111000000000000000000000000000A7
:100620000000000000000000000000002100240085
:1006300027002A002D0030003300010100000401D2
:1006400007010A0101021020200808102040102094
:100650004080020102010804020101020408102086
:100660004080804020100804020180040201804084
:1006700020100804020108040201010204081020ED
:100680004080010204081020408000002200250064
:1006900028002B002E00310034000201000005016B
:1006A00008010B01050505050705080808080202F1
:1006B00002020A0A080804040404010101010101FC
:1006C00001010303030303030303040707070C0CDF
:1006D0000C0C0C0C0C0C02020202060606060606A6
:1006E00006060B0B0B0B0B0B0B0B8F1211241FBEF3
:1006F000CFEFD1E2DEBFCDBF00E00CBF23E0A6E428
:10070000B2E001C01D92A33AB207E1F712E0A0E007
:10071000B2E0E8E5FFE200E00BBF02C007900D92F7
:10072000A634B107D9F713E0C6E7D3E000E006C06E
:1007300021970109802FFE010E948615C537D10738
:1007400080E00807A9F70E94BE130C94AA1758CCA2
:1007500090E0FC01EC5BF94F24918C55994FFC0122
:100760008491882399F090E0880F991FFC01E65D41
:10077000F94FA591B491FC01E657F94F85919491F9
:100780008FB7F894EC91E22BEC938FBF0895AF9262
:10079000BF92CF92DF92EF92FF920F931F93CF936E
:1007A000DF936C017B018B01040F151FEB015E01D0
:1007B000AE18BF08C017D10759F06991D601ED9165
:1007C000FC910190F081E02DC6011995892B79F7F4
:1007D000C501DF91CF911F910F91FF90EF90DF90B6
:1007E000CF90BF90AF900895FC0144815581608106
:1007F00071818FE593E0CBCFFC01538D448D252F84
:1008000030E0842F90E0821B930B541710F0CF96AA
:10081000089501970895FC01918D828D981761F0DC
:10082000A28DAE0FBF2FB11D5D968C91928D9F5FF3
:100830009F73928F90E008958FEF9FEF08952FB7E9
:10084000F8948091BE029091BF02A091C002B09135
:10085000C1022FBF8093CA029093CB02A093CC0217
:10086000B093CD0282EC92E0D6DF97FF26C02FB77F
:10087000F8948091BE029091BF02A091C002B09105
:10088000C1022FBF4091CA025091CB026091CC02AD
:100890007091CD02841B950BA60BB70B4091C6023D
:1008A0005091C7026091C8027091C90284179507E0
:1008B000A607B707B8F28FEF9FEF0895FC01918D5F
:1008C000828D981731F0828DE80FF11D858D90E0B3
:1008D00008958FEF9FEF0895FC01918D228D892F50
:1008E00090E0805C9F4F821B91098F739927089538
:1008F00082EC92E0F1DF21E0892B09F420E0822FE5
:100900000895FC01A48DA80FB92FB11DA35ABF4FA4
:100910002C91848D90E001968F739927848FA689FE
:10092000B7892C93A089B1898C91837080648C9352
:10093000938D848D981306C00288F389E02D808101
:100940008F7D80830895EF92FF920F931F93CF9333
:10095000DF93EC0181E0888F9B8D8C8D98131AC0FA
:10096000E889F989808185FF15C09FB7F894EE89E1
:10097000FF896083E889F98980818370806480833E
:100980009FBF81E090E0DF91CF911F910F91FF9089
:10099000EF900895F62E0B8D10E00F5F1F4F0F7331
:1009A0001127E02E8C8D8E110BC00FB607FCFACFED
:1009B000E889F989808185FFF5CFCE01A2DFF2CFEA
:1009C000EB8DEC0FFD2FF11DE35AFF4FF0829FB727
:1009D000F8940B8FEA89FB8980818062D0CFCF9316
:1009E000DF93EC01888D8823B1F0AA89BB89E8895F
:1009F000F9898C9185FD03C0808186FD0CC00FB6FE
:100A000007FCF7CF8C9185FFF2CF808185FFEDCF7A
:100A1000CE0177DFEACFDF91CF91089580E090E0BB
:100A2000892B21F065DF81110E94000080E090E0B9
:100A3000892B49F080E090E0892B29F00E9400008A
:100A400081110E94000080E090E0892B49F080E055
:100A500090E0892B29F00E94000081110E94000083
:100A600080E090E0892B49F080E090E0892B29F02C
:100A70000E94000081110C9400000895282F30E09E
:100A8000F901EC51FA4F9491F901EC5BF94F449163
:100A90002C55394FF9012491222309F435C09923AB
:100AA00011F191509231F8F4E92FF0E08827E45ADF
:100AB000FA4F8F4F0C9486158D0591056E058505AF
:100AC0008905730594059A059E05A405A805AC053E
:100AD000B205B6057305BA05C005C405809180004E
:100AE0008F7780938000E22FF0E0EE0FFF1FE65734
:100AF000F94FA591B4918FB7F894EC91611148C06A
:100B000040954E234C938FBF0895809180008F7D38
:100B1000E8CF80918000877FE4CF84B58F7784BD54
:100B2000E2CF84B58F7DFBCF8091B0008F7780932B
:100B3000B000D9CF8091B0008F7DF9CF8091900027
:100B40008F7780939000CFCF809190008F7DF9CFE9
:100B500080919000877FF5CF8091A0008F77809360
:100B6000A000C1CF8091A0008F7DF9CF8091A0001F
:100B7000877FF5CF809120018F7780932001B3CFBD
:100B8000809120018F7DF9CF80912001877FF5CF63
:100B90004E2BB8CF3FB7F8948091B8029091B9022C
:100BA000A091BA02B091BB0226B5A89B05C02F3F09
:100BB00019F00196A11DB11D3FBFBA2FA92F982F83
:100BC0008827BC01CD01620F711D811D911D42E07E
:100BD000660F771F881F991F4A95D1F708958F9246
:100BE0009F92AF92BF92CF92DF92EF92FF92D2DFAD
:100BF0004B015C0188EEC82E83E0D82EE12CF12C4D
:100C0000C9DF681979098A099B09683E7340810523
:100C10009105B0F321E0C21AD108E108F10888EE8D
:100C2000880E83E0981EA11CB11CC114D104E104FC
:100C3000F10431F7FF90EF90DF90CF90BF90AF902D
:100C40009F908F90089520916D02260F3327331FB8
:100C500021323105ECF420919102FC0190E080E01A
:100C6000243069F082E00895A0916D022191AC01D9
:100C7000435B5D4FA40FB52FB11D2C9301968617D2
:100C800098F380916D02680F60936D0280E0089583
:100C900081E0089508958FEF9FEF08958FEF9FEF04
:100CA00008958091460290E091958195910908956B
:100CB000CF93DF93CB01EA01642FC5DFCE01DF9133
:100CC000CF910895CF93DF931F92CDB7DEB769839D
:100CD00061E0CE010196B7DF81E090E00F90DF91F7
:100CE000CF910895DF92EF92FF920F931F93CF93CE
:100CF000DF93DC0177FDB0C018968D919C91199718
:100D0000681779070CF0A8C057FDA6C01A968D91F8
:100D10009C911B97481759070CF09EC014968D9113
:100D20009C9115975696EC915697E23009F49CC029
:100D3000E33009F4A9C0E13031F4FC013197E41B40
:100D4000F50BAB01BF018901012F112702950F702F
:100D5000F02EE901CC0FCD2FCC1FDD0BD195EC2F60
:100D6000EF70EE2E36952795E22FEF70DE2E5F9610
:100D7000EC915F97F0E0017011273C2F31702170EA
:100D80009096CC919097D0E0CC0FDD1FCA0FDB1F5F
:100D90004E175F070CF086C0489FF001499FF00D89
:100DA000589FF00D1124AF01440F551FE40FF51F9C
:100DB0006E0F7F1FEB8DFC8DE60FF71F880F991FBD
:100DC000EF01C80FD91F88818C7F8883012B59F0D0
:100DD0001496CD91DC911597CC0FDD1FCE0FDF1F40
:100DE000888181608883332359F01496CD91DC91FA
:100DF0001597CC0FDD1FCE0FDF1F8881826088839F
:100E00001496CD91DC911597CE0FDF1F8881222398
:100E100009F444C08160888323E030E092E080815F
:100E2000837E4F2D492309F03BC080838E2D89237B
:100E300019F08081886080838D2D892319F080814D
:100E40008061808314964D915C911597E40FF51F96
:100E5000990F2150310919F7DF91CF911F910F910F
:100E6000FF90EF90DF900895FC013197EF01C61BD2
:100E7000D70BBE011696ED91FC9117973197EF01B4
:100E8000C41BD50BAE015FCF1696ED91FC91179761
:100E90003197E61BF70BBA01AF0155CF8E7FBBCF61
:100EA0008460C3CF4E1B5F0B489FF001499FF00D3C
:100EB000589FF00D1124CF01880F991FE80FF91FDB
:100EC0006E0F7F1FEB8DFC8DE60FF71F80818C7FEF
:100ED00080831496CD91DC911597CE0FDF1F88810A
:100EE000012B61F182608883332319F08081816056
:100EF0008083222319F080818260808323E030E0A8
:100F000092E080818F714F2D4923D1F480838E2D03
:100F1000892319F08081806480838D2D892319F0C5
:100F200080818068808314964D915C911597E40FC1
:100F3000F51F990F2150310921F78ECF8D7FD3CF27
:100F40008062E4CF0895FC016370668B8481958193
:100F500026813781613039F0633029F091878087AD
:100F60003387228708953187208793878287089562
:100F70002F923F924F925F926F927F928F929F92A9
:100F8000AF92BF92CF92DF92EF92FF920F931F9397
:100F9000CF93DF93CDB7DEB76A970FB6F894DEBF75
:100FA0000FBECDBF9A8F898F7A8369834A01D22E73
:100FB00018870F833701BC2CDC0159962D913C9189
:100FC0005A972115310509F015C118968D919C91FC
:100FD0001997681779070CF0D7C11A968D919C91D3
:100FE000481759070CF0D0C14C2C512CB6E0CB9EC1
:100FF000600D711D11247C876B87161617060CF087
:10100000C3C1EA2DF0E0FA87E98793E0EE0FFF1FF6
:101010009A95E1F7F88BEF87CF01840F951F18168B
:1010200019060CF0B1C1A98DBA8D58968C91811119
:1010300004C0BFEABD1508F4D394A98DBA8DED9113
:10104000FC9111970284F385E02DCD011995B5E04F
:10105000DB9EC0011124E981FA81FC83EB83312CF2
:10106000212C9C012C513F4F388F2F8B4A2D50E063
:101070005E8B4D8BEF89F88DE20DF31D44919E82BE
:101080008D82D12CC12C69817A81620D731D7A8B7E
:10109000698B842F90E09C8B8B8BE98DFA8DA081DE
:1010A000B18140FF82C0F1E0BF126FC0AF126DC0CE
:1010B0001C96ED91FC912F813885A4014C0D5D1D8E
:1010C00069897A89898D9A8D1995EB89FC89F595BD
:1010D000E7954E2F5FEFC51AD50A6D817E818D8908
:1010E0009E89680F791F7E836D8398E0C916D104AD
:1010F00081F6AFEF2A1A3A0AEB81FC81E40DF51D67
:10110000FC83EB83F5E02F16310409F0B3CF2F8178
:10111000388526153705B9F0A98DBA8DED91FC916A
:10112000B1E0BB1257C0AB1255C069817A816B5FC9
:101130007F4F0088F189E02D830128E030E0A40191
:10114000898D9A8D1995A98DBA8DED91FC91119784
:101150000688F789E02DCD016A960FB6F894DEBFB8
:101160000FBECDBFDF91CF911F910F91FF90EF90F8
:10117000DF90CF90BF90AF909F908F907F906F90B7
:101180005F904F903F902F9019941E96ED91FC9197
:10119000EF80F88409851A8592014D815E816B810B
:1011A0007C81898D9A8D199590CF2F813885261550
:1011B000370509F48ACF31E0B31207C0A31205C086
:1011C0001C96ED91FC91930178CF1E96ED91FC91C8
:1011D0007301E0CF6B857C85641975090684F785FA
:1011E000E02D73010F8518899201A401898D9A8DD4
:1011F0001995A9CFF901349694913297459154915C
:10120000D91AB7E0DB9E400D511D1124F90125913B
:1012100034913C8B2B8BFA0125903490FA01329655
:10122000749031963491398B329664903196449013
:1012300041E04C1518F04A1508F07FC0662D062CC9
:10124000000C770B7C836B83842D042C000C990B92
:101250009E838D83A98DBA8DED91FC9111970284A7
:10126000F385E02DCD011995512CD12CC12CEA2DFF
:10127000F0E0FA87E9872B2D30E03C872B87A4012B
:10128000440D511D47FC5A95588F4F8B69817A81C7
:10129000660D711D67FC7A957E876D877989C71603
:1012A00008F051CF2C2D30E04D815E81420F531F4D
:1012B000A985BA854A9FC0014B9F900D5A9F900DFA
:1012C0001124FC01E80DF91DF88BEF87852D612CA9
:1012D0004F89588D420F531F5E8B4D8B671408F05A
:1012E00050C044244394480E877041F4C1010196D4
:1012F000EB89FC89E20DF31DD4901C01D7FE19C0C7
:10130000A98DBA8DED91FC91662D70E0B1E0BB1214
:1013100019C0AB1217C02D853E85620F731F048460
:10132000F585E02D2F8138854D895E89898D9A8DCF
:101330001995DD0C6394842DD1CF1E821D821C82F1
:101340001B8288CF4B815C81640F751FAB85BC8588
:101350006A9FC0016B9F900D7A9F900D1124698147
:101360007A81680F791F0684F785E02DEF80F88475
:1013700009851A859D014F855889898D9A8D199502
:10138000D8CF570CC3948ACF6A960FB6F894DEBFB5
:101390000FBECDBFDF91CF911F910F91FF90EF90C6
:1013A000DF90CF90BF90AF909F908F907F906F9085
:1013B0005F904F903F902F9008958F929F92AF92A1
:1013C000CF92EF92FF920F931F93CF93DF93EC0195
:1013D000262F898D9A8D009709F050C06A30D1F47C
:1013E0001D861C868D8948E0849F900111248E857E
:1013F0009F85820F931F9F878E8781E090E0DF910A
:10140000CF911F910F91FF90EF90CF90AF909F9051
:101410008F9008956D3089F3CC88AD888F898823AB
:10142000C1F08C859D8536E0C39E800D911D1124F1
:10143000488559854817590764F44E855F851D8690
:101440001C8638E0A39EC0011124840F951F9F873E
:101450008E87EA88FB88088919894E855F856C85A7
:101460007D85CE0185DD2C898C859D8546E0249F78
:10147000800D911D11249D878C87BFCF6A3069F440
:101480001D861C86FC013896E4912D898E859F85EA
:10149000E29F800D911D1124AECF6D3009F4ADCFC8
:1014A000FC0134963491631708F4A7CF3296E49187
:1014B000E61708F4A2CFFC01329685909490462F4F
:1014C000431B342F47E0349F800C911C1124F401FE
:1014D000329634913196E4913323A1F1EE2391F1C8
:1014E000CC88F4013596E491AD884F89442301F10D
:1014F0000E2E000CFF0BE30FF11DCE9EA001CF9E20
:10150000500D11246C857D85460F571F68857985A0
:10151000641775076CF44E855F851D861C86FC017B
:101520003896E491AE9E400D511D11245F874E8781
:10153000EA88FB88088919894E855F856C857D85D9
:10154000CE0116DDF4013496E4912C898C859D85BD
:10155000E29F800D911D11248ECF6F927F928F920A
:101560009F92AF92BF92CF92DF92EF92FF920F9332
:101570001F93CF93DF93EC016B015A0139014801AE
:10158000E881F9810284F385E02D1995E881F981DC
:101590000288F389E02D87019301A501B601CE01F0
:1015A0001995A501480D591D41505109E881F9814E
:1015B0000288F389E02D9301B601CE011995E881E7
:1015C000F9810088F189E02D9401A501B601CE01D1
:1015D0001995C60CD71CB60161507109E881F981D3
:1015E0000088F189E02D9401A501CE011995E881CB
:1015F000F9810688F789E02DCE01DF91CF911F9107
:101600000F91FF90EF90DF90CF90BF90AF909F90A1
:101610008F907F906F9019946F927F928F929F928C
:10162000AF92BF92CF92DF92EF92FF920F931F93F0
:10163000CF93DF935C01EB016A0149013801870117
:10164000DC01ED91FC916217730719F564167506BC
:101650002CF0962D872D3A01C92ED82E96012619E9
:1016600037092F5F3F4F048CF58DE02DA301BE019C
:10167000C5011995DF91CF911F910F91FF90EF90C8
:10168000DF90CF90BF90AF909F908F907F906F90A2
:1016900008954615570591F42617370724F0892D2C
:1016A0004B01C22FD82F9E01281939092F5F3F4FB8
:1016B000068CF78DE02DA601B401DACF0284F38504
:1016C000E02D1995D501ED91FC910488F589E02D67
:1016D00083019401A601BE01C5011995D501ED91C3
:1016E000FC910688F789E02DC501DF91CF911F910C
:1016F0000F91FF90EF90DF90CF90BF90AF909F90B1
:101700008F907F906F901994EF92FF920F931F9399
:10171000DC011A960D911C911B9718962D913C9106
:101720001997ED91FC9100A0F1A1E02D7B0150E013
:1017300040E070E060E019951F910F91FF90EF90ED
:1017400008954F925F926F927F928F929F92AF9285
:10175000BF92CF92DF92EF92FF920F931F93CF939E
:10176000DF936C012B015A0139014801DC01ED9135
:10177000FC910284F385E02D1995E201640C751C3F
:10178000D601ED91FC91C615D7055CF40088F1896E
:10179000E02D87019401A501BE01C601199521968E
:1017A000EFCF0688F789E02DC601DF91CF911F9119
:1017B0000F91FF90EF90DF90CF90BF90AF909F90F0
:1017C0008F907F906F905F904F9019948F929F921F
:1017D000AF92BF92CF92DF92EF92FF920F931F933F
:1017E000CF93DF93EC015B014A016901E881F98144
:1017F0000284F385E02D199595012C0D3D1D215096
:101800003109E881F9810488F589E02D78018401A6
:10181000A401B501CE011995E881F9810688F789FF
:10182000E02DCE01DF91CF911F910F91FF90EF90AE
:10183000DF90CF90BF90AF909F908F9019948F9230
:101840009F92AF92BF92CF92DF92EF92FF920F934F
:101850001F93CF93DF93EC015B014A01690178018B
:10186000E881F9810284F385E02D1995C80CD91C13
:10187000860101501109E881F9810488F589E02D7C
:101880009501A401B501CE011995E881F981068879
:10189000F789E02DCE01DF91CF911F910F91FF903D
:1018A000EF90DF90CF90BF90AF909F908F90199462
:1018B000EF92FF920F931F93DC01ED91FC9100A03A
:1018C000F1A1E02D19951F910F91FF90EF900895D0
:1018D0000F931F93DC01ED91FC91068CF78DE02DA9
:1018E00019951F910F9108950F931F93DC01ED91AE
:1018F000FC91048CF58DE02D19951F910F910895A1
:10190000DC01ED91FC910084F185E02D19942F927A
:101910003F924F925F926F927F928F929F92AF927F
:10192000BF92CF92DF92EF92FF920F931F93CF93CC
:10193000DF9300D000D0CDB7DEB73C016A013E8313
:101940002D83FC82EB825801A41AB50AB7FE03C0AE
:10195000B194A194B1088D809E80861A970A97FE53
:1019600003C09194819491088A149B045CF0902F99
:10197000812F0D811E819D838E839C2D8D2D6B016A
:10198000692F782F0C151D055CF09D818E817E835B
:101990006D83692F782F902F812F8601C92ED82E25
:1019A0001601201A310A2B012D813E81421A530A59
:1019B00057FE03C0519441945108710137FE03C092
:1019C0003FEFE31AF30AF594E7948D819E81861721
:1019D00097075CF5A1E0B0E0BA83A983C016D106F1
:1019E0004CF1D301ED91FC910484F585E02D2B8120
:1019F0003C81A8016D817E818A149B041CF04D817D
:101A00005E81B801C3011995E418F508F7FE0AC014
:101A10002D813E8189819A81280F391F3E832D8334
:101A2000E20CF31C0F5F1F4FD9CF2FEF3FEF3A832C
:101A30002983D4CF26960FB6F894DEBF0FBECDBF54
:101A4000DF91CF911F910F91FF90EF90DF90CF909A
:101A5000BF90AF909F908F907F906F905F904F90CE
:101A60003F902F900895089590E080E008959B01A5
:101A7000215031092E3F3F4FE8F0DC019096EC9168
:101A800090975F96FC915F9714964D915C91F49FAF
:101A90009001F59F300D1124A901440F551F420FED
:101AA000531FF0E0EE0FFF1FE80FF91F838D948D99
:101AB0000C949C1729CEFC0180819181009711F034
:101AC0000C942A1608950E948F170F931F93CF939B
:101AD000DF93EC0188819981009759F02A813B813D
:101AE0002617370730F081E0DF91CF911F910F91DA
:101AF00008958B016F5F7F4F0E94B316009759F0D6
:101B0000998388831B830A832C813D81232B59F77A
:101B1000FC011082E8CF80E0E7CFEF92FF920F93B5
:101B20001F93CF93DF931F921F92CDB7DEB78C0127
:101B3000FC0111821082138212821582148270E0DD
:101B400060E0C3DFF80120813181811131C02115AE
:101B5000310519F0C9010E942A16F801118210827C
:101B600015821482138212820E941F0497FD28C0DE
:101B70008A30910529F189831A82F801E480F58081
:101B8000FFEFEF1AFF0AB701C8019FDF882361F357
:101B9000F8012081318184819581BE016F5F7F4F83
:101BA000820F931F0E94A317F801F582E482DCCF15
:101BB0001582148264E472E0C9010E94A317D4CF95
:101BC000C8010F900F90DF91CF911F910F91FF905F
:101BD000EF9008951F93CF93DF9385ED8093BC0022
:101BE0008091490290914A02A0914B02B0914C021F
:101BF0000796A11DB11D23E0B695A79597958795EA
:101C00002A95D1F72091BC0024FD03C010929102C7
:101C100052C04091490250914A0260914B0270912A
:101C20004C02452B462B472B69F30097A105B105C4
:101C300041F025E32A95F1F700000197A109B109C8
:101C4000E1CF80914802C1E0C0934702882399F117
:101C5000D091B8001091BA008091BC008A7B80932B
:101C6000BC0060E084E10E943E0560E085E10E94E6
:101C70003E0510929102C09393021092920261E08D
:101C800084E10E943E0561E085E10E943E0580916D
:101C9000B9008E7F8093B9008091B9008D7F8093C9
:101CA000B90088E48093B80085E48093BC00109369
:101CB000BA00D093B800DF91CF911F9108951F9281
:101CC0000F920FB60F9211240BB60F922F933F93E2
:101CD0004F935F936F937F938F939F93AF93BF9334
:101CE000EF93FF9382EC92E00E948104FF91EF91C9
:101CF000BF91AF919F918F917F916F915F914F9124
:101D00003F912F910F900BBE0F900FBE0F901F9021
:101D100018951F920F920FB60F9211240BB60F92C7
:101D20002F938F939F93EF93FF93E091D202F091C3
:101D3000D3028081E091D802F091D90282FD1DC0CA
:101D400090818091DB028F5F8F732091DC0282177C
:101D500041F0E091DB02F0E0EE53FD4F958F809370
:101D6000DB02FF91EF919F918F912F910F900BBE0E
:101D70000F900FBE0F901F9018958081F2CF1F9289
:101D80000F920FB60F9211242F933F938F939F932F
:101D9000AF93BF938091BE029091BF02A091C00209
:101DA000B091C1023091B70223E0230F2D3758F5CF
:101DB0000196A11DB11D2093B7028093BE0290939E
:101DC000BF02A093C002B093C1028091B80290916B
:101DD000B902A091BA02B091BB020196A11DB11D3A
:101DE0008093B8029093B902A093BA02B093BB0259
:101DF000BF91AF919F918F913F912F910F900FBE07
:101E00000F901F90189526E8230F0296A11DB11D73
:101E1000D2CF1F920F920FB60F9211240BB60F92D2
:101E20002F933F934F935F936F937F938F939F93E2
:101E3000AF93BF93EF93FF938091B900887F803673
:101E400009F44CC008F03FC0883209F4A6C028F558
:101E5000803109F49AC0C8F4882309F4F6C08830A8
:101E600009F493C0FF91EF91BF91AF919F918F9132
:101E70007F916F915F914F913F912F910F900BBE8A
:101E80000F900FBE0F901F901895883109F485C0F0
:101E9000803241F78093900214C0803409F49AC0D4
:101EA00040F48033B9F38833E9F68093900285ECEF
:101EB000ADC0803509F482C0883509F493C08834F8
:101EC00089F688DECFCF883909F48AC038F588379B
:101ED00029F050F4883611F0803721F683E08093A2
:101EE000910210928F0255C0883809F479C0803968
:101EF00019F0803809F0B6CF80918F02803208F057
:101F00006FC0E0918F0281E08E0F80938F028091ED
:101F1000BB00F0E0E159FD4F80833BC0803B39F0CE
:101F2000D0F4803A09F477C0883A09F09BCF84E076
:101F30008093910210926E0210926D02F0E0E0E048
:101F4000199580916D0281110FC081E080936D021F
:101F500010924D0209C0803C09F4A9CF883C09F4D5
:101F6000A6CF883B09F07ECFE0916E0281E08E0F14
:101F700080936E02F0E0E35BFD4F80818093BB00B5
:101F800090916E0280916D0229C08091B60280937B
:101F9000BB0085EC8093BC0065CF9091B502809129
:101FA000B402981758F5E091B50281E08E0F809346
:101FB000B502F0E0EC56FD4F8081E9CFE091B5022B
:101FC00081E08E0F8093B5028091BB00F0E0EC566B
:101FD000FD4F80839091B5028091B4029817C8F2AA
:101FE00085E8D8CFE091B50281E08E0F8093B502ED
:101FF0008091BB00F0E0EC56FD4F8083809193020E
:1020000081115FCF81E08093920284EA8093BC00CB
:102010001092910227CF85EC8093BC001092910220
:1020200080918F02803230F4E0918F02F0E0E1592C
:10203000FD4F108260918F0270E08FE692E0F0E039
:10204000E0E0199510928F020DCF1092900239CFD7
:102050001F920F920FB60F9211240BB60F921F937F
:102060002F933F934F935F936F937F938F939F93A0
:10207000AF93BF93CF93DF93EF93FF93A091BC02F5
:10208000B091BD02D296ED91FC91D39780819B9641
:102090009C919B97892B8083D096ED91FC91D19751
:1020A00080819A969C919A97892B80835F963C9128
:1020B0005F9788EC90E0393010F480E991E0DD968C
:1020C0002C91DD9788589F4F02C0880F991F2A9541
:1020D000E2F7CC97DD962C91DD972F5FDD962C9360
:1020E000DD97243008F481C1DD961C92DD97DC96E3
:1020F0002C91DC972F5FDC962C93DC97231720F133
:10210000DC961C92DC9791962C919197222359F0A2
:1021100090963C91909721E0231B90962C9390975A
:1021200091961C92919790962C919097E1E0F0E017
:10213000E21BF109EE0FFF1FEA0FFB1F238D348D09
:10214000DF963C932E93DE97DE96ED91FC91DF9720
:1021500090938700809386001092850010928400EF
:10216000D296CD91DC91D39798819B968C919B9739
:10217000809589238883D096CD91DC91D1979881E1
:102180009A968C919A9780958923888395B1999690
:102190008C919997892BDD962C91DD97222309F458
:1021A0008DC1019002B885B995B9019002B885B981
:1021B00095B9019002B885B995B9019002B885B971
:1021C00095B9019002B885B995B9019002B885B961
:1021D00095B9019002B885B995B9019002B885B951
:1021E00095B9019002B885B995B9019002B885B941
:1021F00095B9019002B885B995B9019002B885B931
:1022000095B9019002B885B995B9019002B885B920
:1022100095B9019002B885B995B9019002B885B910
:1022200095B9019002B885B995B9019002B885B900
:1022300095B9019002B885B995B9019002B885B9F0
:1022400095B9019002B885B995B9019002B885B9E0
:1022500095B9019002B885B995B9019002B885B9D0
:1022600095B9019002B885B995B9019002B885B9C0
:1022700095B9019002B885B995B9019002B885B9B0
:1022800095B9019002B885B995B9019002B885B9A0
:1022900095B9019002B885B995B9019002B885B990
:1022A00095B914962D913C9115972034310509F07C
:1022B00080C0019002B885B995B9019002B885B97E
:1022C00095B9019002B885B995B9019002B885B960
:1022D00095B9019002B885B995B9019002B885B950
:1022E00095B9019002B885B995B9019002B885B940
:1022F00095B9019002B885B995B9019002B885B930
:1023000095B9019002B885B995B9019002B885B91F
:1023100095B9019002B885B995B9019002B885B90F
:1023200095B9019002B885B995B9019002B885B9FF
:1023300095B9019002B885B995B9019002B885B9EF
:1023400095B9019002B885B995B9019002B885B9DF
:1023500095B9019002B885B995B9019002B885B9CF
:1023600095B9019002B885B995B9019002B885B9BF
:1023700095B9019002B885B995B9019002B885B9AF
:1023800095B9019002B885B995B9019002B885B99F
:1023900095B9019002B885B995B9019002B885B98F
:1023A00095B9019002B885B995B9019002B885B97F
:1023B00095B9DF96FC93EE93DE9786B386BBFF91CB
:1023C000EF91DF91CF91BF91AF919F918F917F91CD
:1023D0006F915F914F913F912F911F910F900BBE85
:1023E0000F900FBE0F901F901895DD962C91DD97E2
:1023F000213009F0A9CEDC963C91DC97D496ED9182
:10240000FC91D5979C962C919C9730FF47C03081CA
:10241000232B2083E3E2F0E03197F1F7DC963C9147
:10242000DC97D696ED91FC91D7979D962C919D9730
:1024300031FF38C03081232B2083E3E2F0E0319775
:10244000F1F7DC963C91DC97D896ED91FC91D99709
:102450009E962C919E9732FF29C03081232B20839A
:10246000E3E2F0E03197F1F75F962C915F97293026
:1024700008F46ACEDC963C91DC97DA96ED91FC91FB
:10248000DB979F962C919F9733FF14C03081232BAD
:102490002083E3E2F0E03197F1F756CE30812095CA
:1024A0002323B7CF308120952323C6CF30812095B9
:1024B0002323D5CF308120952323EACF10E0412F6D
:1024C00050E014962D913C911597421753070CF04C
:1024D00074CFBA01620F731F2E0F3F1FE901C60FA1
:1024E000D71F2881C4E02C9F900111242C706E0FFF
:1024F0007F1FEB016881D0E16D9FB00111246073F3
:10250000262B4E0F5F1FEA014881D0E44D9FA001AA
:102510001124242B22B985B995B91F5FD0CF109211
:10252000C5021092C40288EE93E0A0E0B0E0809370
:10253000C6029093C702A093C802B093C9028AE072
:1025400092E09093C3028093C20285EC90E0909356
:10255000CF028093CE0284EC90E09093D1028093DE
:10256000D00280EC90E09093D3028093D20281EC71
:1025700090E09093D5028093D40282EC90E0909307
:10258000D7028093D60286EC90E09093D902809394
:10259000D8021092DB021092DC021092DD0210923F
:1025A000DE02109262031092610380E290E0909349
:1025B0006403809363039093660380936503909311
:1025C00068038093670390936A0380936903109272
:1025D000750310926C0310926B0310926E031092AD
:1025E0006D0381E080937403809373032FEF3FEFBB
:1025F00030937203209371033093700320936F0321
:1026000080937603109277031092790310927803E7
:102610008CE192E09093600380935F0380E180936C
:102620007E0380E096E07AD290937B0380937A03D6
:10263000009709F48CC020E036E0FC01A90111925A
:1026400041505040E1F790937D0380937C0386E3F3
:102650008093840387E38093850388E380938603D4
:102660008BE0809381038AE08093820389E08093EA
:102670008303EFE4F6E0E491E0938803EEEAF6E00A
:10268000E491F0E0EE0FFF1FE657F94F859194912A
:102690009093900380938F03EEE4F6E0E491E0934F
:1026A0008903EDEAF6E0E491F0E0EE0FFF1FE65754
:1026B000F94F859194919093920380939103EDE467
:1026C000F6E0E491E0938A03EAEDF6E0E491F0E0CD
:1026D000EE0FFF1FE657F94F859194919093940365
:1026E00080939303EAE7F6E0E491E0938B03EBED4C
:1026F000F6E0E491F0E0EE0FFF1FE657F94F859109
:1027000094919093960380939503EBE7F6E0E49120
:10271000E0938C03ECEDF6E0E491F0E0EE0FFF1FA8
:10272000E657F94F8591949190939803809397037E
:10273000ECE7F6E0E491E0938D0383E080939C0363
:102740008FE080939B031092800310927F0389E3B4
:1027500080938703EDEDF6E0E491F0E0EE0FFF1FCC
:10276000E657F94F8591949190939A03809399033A
:10277000EDE7F6E0E491E0938E030895CF93DF93C5
:10278000CDB7DEB762970FB6F894DEBF0FBECDBFF0
:10279000789484B5826084BD84B5816084BD85B53C
:1027A000826085BD85B5816085BD80916E00816048
:1027B00080936E00109281008091810082608093EE
:1027C00081008091810081608093810080918000F0
:1027D0008160809380008091B10084608093B1001B
:1027E0008091B00081608093B00080919100826000
:1027F00080939100809191008160809391008091FD
:1028000090008160809390008091A100826080930D
:10281000A1008091A10081608093A1008091A0001F
:1028200081608093A00080912101826080932101CA
:10283000809121018160809321018091200181603C
:102840008093200180917A00846080937A00809147
:102850007A00826080937A0080917A008160809310
:102860007A0080917A00806880937A001092C1008B
:1028700010927F0380917F03E1E0F0E0E81BF10913
:10288000EE0FFF1FE15AFC4F838D948D90939E03B2
:1028900080939D038FE593E09093BD028093BC02EB
:1028A000809181030E94A80360E0809181030E94CF
:1028B0003E05809182030E94A803E0918F03F0916E
:1028C00090039081809189038095892380838091F2
:1028D00083030E94A803E0919103F0919203808109
:1028E00090918A03892B8083809184030E94A8039E
:1028F000E0919303F0919403908180918B038095F4
:1029000089238083809185030E94A803E091950329
:10291000F0919603908180918C0380958923808328
:10292000809186030E94A803E0919703F091980399
:10293000908180918D0380958923808380917E038F
:10294000893070F0809187030E94A803E091990379
:10295000F0919A03908180918E03809589238083E2
:102960008CEF81B912B892E09093800089E1809356
:10297000810024E630E03093870020938600809128
:102980006F00816080936F007894E091D202F091A3
:10299000D3029083E091CE02F091CF021082E091B9
:1029A000D002F091D1028FEC80831092DA02E09194
:1029B000D602F091D70286E08083E091D402F091B4
:1029C000D502808180618083E091D402F091D502AC
:1029D000808188608083E091D402F091D50280816B
:1029E00080688083E091D402F091D50280818F7D50
:1029F0008083F12CE12C00E210E020E230E050E096
:102A000040E070E060E08FE593E00E94A10B10923F
:102A10006C0310926B0310926E0310926D0381E0B1
:102A2000809373038093740384E090E29093720325
:102A3000809371039093700380936F0388E0A82EB6
:102A4000B12C12E094E0E92E98E4F92E28E1822ED0
:102A5000912C01E034E0C32E30E2D32E82EC92E0E0
:102A60000E946C04181619060CF04DC0CE010D968C
:102A700054D80E94EF05CE0107964FD80E94EF056B
:102A8000CE0101964AD8CE010D960E94F403109211
:102A90006C0310926B03B0926E03A0926D031093BF
:102AA000730310937403F0927203E0927103F09237
:102AB0007003E0926F03CE0107960E94F403109218
:102AC0006C0310926B0390926E0380926D030093DF
:102AD000730300937403D0927203C0927103D09277
:102AE0007003C0926F03CE0101960E94F403CE01E1
:102AF00001960E945B0DCE0107960E945B0DCE01F0
:102B00000D960E945B0D0E940E05A8CFEE0FFF1FD1
:102B1000881F8BBF0790F691E02D19940F931F9398
:102B2000CF93DF938230910510F482E090E0E09142
:102B3000A103F091A20330E020E0B0E0A0E03097E4
:102B400099F42115310509F44AC0281B390B2430AA
:102B50003105D8F58A819B816115710589F1FB01E9
:102B600093838283FE0111C04081518102811381D0
:102B700048175907E0F04817590799F4109761F082
:102B800012960C93129713961C933296CF01DF91F5
:102B9000CF911F910F9108950093A1031093A20369
:102BA000F4CF2115310551F04217530738F0A90130
:102BB000DB019A01BD01DF01F801C1CFEF01F9CFBF
:102BC0009093A2038093A103CDCFFE01E20FF31FE8
:102BD000819391932250310939832883D7CF209153
:102BE0009F033091A003232B41F4209102023091E6
:102BF00003023093A00320939F03209100023091A1
:102C000001022115310541F42DB73EB74091040270
:102C100050910502241B350BE0919F03F091A00316
:102C2000E217F307A0F42E1B3F0B2817390778F0A3
:102C3000AC014E5F5F4F2417350748F04E0F5F1F02
:102C40005093A00340939F03819391939FCFF0E013
:102C5000E0E09CCFCF93DF930097E9F0FC0132973F
:102C600013821282A091A103B091A203ED0130E082
:102C700020E01097A1F420813181820F931F2091D1
:102C80009F033091A0032817390709F061C0F09322
:102C9000A003E0939F03DF91CF910895EA01CE173F
:102CA000DF07E8F54A815B819E0141155105B1F7C7
:102CB000E901FB83EA8349915991C40FD51FEC17B1
:102CC000FD0761F4808191810296840F951FE901CF
:102CD00099838883828193819B838A83F0E0E0E0FB
:102CE00012968D919C9113970097B9F52D913C9177
:102CF0001197CD010296820F931F20919F0330916F
:102D0000A0032817390739F6309751F51092A2031E
:102D10001092A103B093A003A0939F03BCCFD383D1
:102D2000C28340815181840F951FC817D90761F470
:102D30004E5F5F4F88819981480F591F51834083AF
:102D40008A819B81938382832115310509F0B0CF5D
:102D5000F093A203E093A1039ECFFD01DC01C0CF5D
:102D600013821282D7CF4F925F926F927F928F928F
:102D70009F92AF92BF92CF92DF92EF92FF920F930A
:102D80001F93CF93DF938C01009791F4CB01DF91D8
:102D9000CF911F910F91FF90EF90DF90CF90BF9058
:102DA000AF909F908F907F906F905F904F90B6CE36
:102DB000FC01E60FF71F9C0122503109E217F307CF
:102DC00008F4AAC0D901CD91DC911197C617D70795
:102DD00018F1C530D10570F0CE010497861797071A
:102DE00048F0C61BD70B2297C193D1936D937C9368
:102DF000CF0130DFC801DF91CF911F910F91FF907C
:102E0000EF90DF90CF90BF90AF909F908F907F908A
:102E10006F905F904F9008955B01AC1ABD0A4C0112
:102E20008C0E9D1EA091A103B091A203512C412CA8
:102E3000F12CE12C109731F580919F039091A00324
:102E40008815990509F05CC04616570608F058C069
:102E50008091000290910102009741F48DB79EB7D6
:102E60004091040250910502841B950BE817F90765
:102E700008F052C0F093A003E0939F03F90171831F
:102E80006083B8CF8D919C91119712966C90129798
:102E900013967C901397A815B90559F56C0142E07B
:102EA000C40ED11CCA14DB0420F1AC014A195B0921
:102EB000DA011296159780F0628273825183408303
:102EC000D9016D937C93E114F10471F0D70113964D
:102ED000FC93EE9312978ECF22968C0F9D1FF901D3
:102EE00091838083F301EFCFF093A203E093A103DA
:102EF00081CF4816590608F42C017D01D3019ACFE1
:102F0000CB010CDE7C01009739F0AE01B8010BD08B
:102F1000C801A0DE87016ECF10E000E06BCF81E03A
:102F200090E0F89417C0FB01DC0102C001900D9203
:102F300041505040D8F70895DC0101C06D934150D5
:102F40005040E0F70895FB01DC0101900D92002054
:082F5000E1F70895F894FFCFAA
:102F58000000A303800000000000A304C703FC03D3
:102F6800EF046C040B045E0400000000DD09C703D5
:102F7800340D330D72064A06800C580C740C680C1C
:102F8800870C4A06A307A2071F0CE60BA10B370DF7
:062F98000C0BAD0A000065
:00000001FF
